:020000040800F2
:1000000000000220A51C0008BD030008BF03000873
:10001000C1030008C3030008C50300080000000076
:10002000000000000000000000000000C7030008FE
:10003000C903000800000000CB030008CD0300083E
:10004000F51C0008F51C0008F51C0008F51C00084C
:10005000F51C0008F51C0008F51C0008F51C00083C
:10006000F51C0008F51C0008F51C0008F51C00082C
:10007000F51C0008F51C0008F51C0008F51C00081C
:10008000F51C0008F51C0008F51C0008F51C00080C
:10009000F51C0008F51C0008F51C0008F51C0008FC
:1000A000F51C0008F51C0008F51C0008F51C0008EC
:1000B000F51C0008F51C0008F51C0008F51C0008DC
:1000C000F51C0008F51C0008F51C0008F51C0008CC
:1000D000F51C0008F51C0008F51C0008F51C0008BC
:1000E000D5030008F51C0008F51C0008F51C0008E5
:1000F000F51C0008F51C0008F51C0008F51C00089C
:10010000F51C0008F51C0008F51C0008F51C00088B
:10011000F51C0008F51C0008F51C0008F51C00087B
:10012000F51C0008F51C0008F51C0008F51C00086B
:10013000F51C0008F51C0008F51C0008F51C00085B
:10014000F51C0008F51C0008F51C0008F51C00084B
:10015000F51C0008F51C0008F51C0008F51C00083B
:10016000F51C0008F51C0008F51C0008F51C00082B
:10017000F51C0008F51C0008F51C0008F51C00081B
:10018000F51C0008F51C0008F51C0008F51C00080B
:10019000F51C000800000000F51C0008F51C000814
:1001A000F51C0008F51C0008F51C0008F51C0008EB
:1001B000F51C0008F51C0008F51C0008F51C0008DB
:1001C000F51C0008F51C0008F51C0008F51C0008CB
:0801D000F51C0008F51C0008F5
:1001D80053B94AB9002908BF00281CBF4FF0FF31A6
:1001E8004FF0FF3000F00CB8ADF1080C6DE904CE0B
:1001F80001F0AAFDDDF804E0DDE9022304B0704750
:10020800704700BF10B5054C237833B9044B13B1C0
:100218000448AFF300800123237010BD0C000020B8
:10022800000000000C20000808B5034B1BB103496F
:100238000348AFF3008008BD000000001000002054
:100248000C20000810B58AB0002405940694079481
:1002580008940994254BDA6C42F00402DA64DA6CEB
:1002680002F004020192019ADA6C42F02002DA6488
:10027800DA6C02F020020292029ADA6C42F0010271
:10028800DA64DA6C02F001020392039ADA6C42F043
:100298000202DA64DB6C03F002030493049B224637
:1002A80020214FF0904000F0C7FA4FF40053059317
:1002B8004FF488130693079405A90D4800F0D2F966
:1002C80020230593012306930794089405A94FF06A
:1002D800904000F0C7F922462146282000F09AF9FC
:1002E800282000F0A7F90AB010BD00BF0010024096
:1002F8000008004872B6FEE700B595B03822002124
:1003080006A801F0F4FC00200190029003900490EC
:10031800059000F0A5FA022306934FF48072099223
:1003280040220A920D930E9304220F9255221092A6
:1003380011931293139306A800F04CFB80B90F2376
:100348000193032302930023039304930593042149
:100358000DEB010000F0F4FD20B915B05DF804FBC9
:10036800FFF7C8FFFFF7C6FF08B500F0DDF8FFF795
:10037800C3FFFFF767FF00F039F8FEE700B583B069
:100388000B4B1A6E42F001021A661A6E02F0010255
:100398000092009A9A6D42F080529A659B6D03F024
:1003A80080530193019B00F0E1FA03B05DF804FB70
:1003B80000100240FEE7FEE7FEE7FEE7FEE77047B3
:1003C8007047704708B500F0BFF808BD08B54FF48E
:1003D800005000F037FA08BD034AD2F8883043F4D9
:1003E8007003C2F88830704700ED00E008B5174880
:1003F800174B03604FF4E133436000238360C3600D
:1004080003610C224261836103624362836201F0EB
:1004180082FB70B900210D4801F0F5FB60B900219D
:100428000A4801F015FC50B9084801F0CDFB48B95D
:1004380008BDFFF75FFFEDE7FFF75CFFEFE7FFF7AA
:1004480059FFF1E7FFF756FFF2E700BF2800002049
:100458000080004010B59CB0044600211791189107
:1004680019911A911B91542202A801F040FC2268AC
:10047800174B9A4201D01CB010BD2023029302A84A
:1004880000F084FE00BB134BDA6D42F00102DA651E
:10049800DA6D02F001020092009ADA6C42F0010271
:1004A800DA64DB6C03F001030193019B0C231793BF
:1004B80002221892002219921A921B9317A94FF040
:1004C800904000F0CFF8D6E7FFF714FFDBE700BF56
:1004D8000080004000100240104B1B680BB901203F
:1004E800704710B504464FF47A70B0FBF3F30C4A2A
:1004F8001068B0FBF3F000F0A1F868B90F2C01D92F
:1005080001200AE0002221464FF0FF3000F082F877
:10051800044B1C60002000E0012010BD04000020F6
:10052800000000200800002010B5032000F060F84B
:100538000020FFF7D1FF10B10124204610BD04466A
:10054800FFF71CFFF9E70000034A1368034909682D
:100558000B441360704700BFBC000020040000205B
:10056800014B1868704700BFBC000020002807DB5B
:1005780000F01F02400901239340024A42F820304C
:10058800704700BF00E100E0002808DB0901C9B29C
:1005980000F1604000F5614080F80013704700F0FA
:1005A8000F000901C9B2014B1954704714ED00E05E
:1005B80000B500F00700C0F1070CBCF1040F28BF1C
:1005C8004FF0040C031D062B0FD9C31E4FF0FF3E3E
:1005D8000EFA0CF021EA000199400EFA03FE22EA15
:1005E8000E0241EA02005DF804FB0023EEE700007A
:1005F800074AD36823F4E0631B041B0C000200F4D1
:10060800E060034343F0BF6343F40033D3607047B3
:1006180000ED00E010B50446054BD868C0F3022091
:10062800FFF7C6FF01462046FFF7AEFF10BD00BF2B
:1006380000ED00E008B5FFF799FF08BD0138B0F1FB
:10064800807F0BD24FF0E0235861054AF02182F8F1
:1006580023100020986107221A6170470120704713
:1006680000ED00E0F0B583B0002362E085685E002D
:100678000324B44025EA0405CC68B4402C438460C4
:10068800456825EA0C054C68C4F300149C402C43CB
:1006980044605FE0DD08083550F8254003F0070C9A
:1006A8004FEA8C0C4FF00F0E0EFA0CFE24EA0E0ED9
:1006B8000C6904FA0CF444EA0E0440F8254060E0A2
:1006C800052400E0002404FA0EF42C430CF1020C7B
:1006D800554D45F82C40554CA568D44325EA0206EB
:1006E8004F6817F4801F01D042EA05064F4DAE60EF
:1006F800ED6804EA05064F6817F4001F01D042EAC6
:1007080005064A4DEE606D6804EA05064F6817F461
:10071800003F01D042EA0506444D6E602D682C402A
:100728004E6816F4803F01D042EA05043F4A14603F
:1007380001330A6832FA03F474D04FF0010C0CFA52
:1007480003FC1CEA0202F3D04C6804F00304013CE9
:10075800012C8BD94C6804F00304032C0CD0C4681A
:100768005D004FF0030C0CFA05FC24EA0C0C8C68B5
:10077800AC4044EA0C04C4604C6804F00304022C46
:1007880088D004684FEA430E4FF0030C0CFA0EFCB5
:1007980024EA0C0C4C6804F0030404FA0EF444EA4E
:1007A8000C0404604C6814F4403FC1D0204C256E02
:1007B80045F001052566246E04F001040194019CAE
:1007C8004FEA930C0CF10205174C54F8255003F02E
:1007D800030E4FEA8E0E0F2404FA0EF425EA0405E0
:1007E800B0F1904F3FF46EAF124CA04212D004F516
:1007F8008064A04210D004F58064A0420ED004F5B5
:100808008064A0420CD004F58064A0423FF458AF45
:10081800062458E7012456E7022454E7032452E744
:10082800042450E703B0F0BD00000140000401407B
:1008380000100240000400480AB1816170478162DB
:100848007047704708B5054B5B69034200D108BD86
:10085800024B5861FFF7F5FFF9E700BF00040140BC
:10086800002836D13E4B1B6803F4C063B3F5806F94
:1008780008D03B4AD2F8803023F48073C2F8803025
:1008880000207047364AD2F8803023F48073C2F8CB
:100898008030136823F4C06343F400731360314B52
:1008A8001B68322202FB03F32F4AA2FB03239B0C93
:1008B800013300E0013B2A4A526912F4806F01D0EB
:1008C800002BF7D1264B5B6913F4806F44D10020CD
:1008D8007047B0F5007F08D0214A136823F4C0633D
:1008E80043F480631360002070471D4B1B6803F4BA
:1008F800C063B3F5806F08D0194AD2F8803043F44A
:100908008073C2F8803000207047154AD2F88030D2
:1009180043F48073C2F88030136823F4C06343F44F
:10092800007313600F4B1B68322202FB03F30E4A5D
:10093800A2FB03239B0C013300E0013B084A5269E8
:1009480012F4806F01D0002BF7D1054B5B6913F4CB
:10095800806F03D100207047032070470320704741
:10096800007000400000002083DE1B43024A9368A9
:1009780043F480439360704700700040124BDA687C
:1009880002F00302DB68C3F303130133032A11D017
:100998000E48B0FBF3F00C4BDB68C3F3062303FBF4
:1009A80000F0094BDB68C3F3416301335B00B0FB24
:1009B800F3F070470648B0FBF3F0034BDB68C3F372
:1009C800062303FB00F0ECE7001002400024F400CB
:1009D80000366E01002800F04F8270B582B00446E0
:1009E800036813F0010F37D0A44A936803F00C038F
:1009F800D26802F003020C2B23D0082B23D06368A3
:100A0800B3F5803F4ED0B3F5A02F51D09B4B1A6859
:100A180022F480321A601A6822F480221A6063680D
:100A2800002B52D0FFF79CFD0546944B1B6813F42E
:100A3800003F11D1FFF794FD401B6428F5D903202E
:100A480023E2032AD9D18D4B1B6813F4003F03D04E
:100A58006368002B00F01282236813F0020F5DD048
:100A6800864A936803F00C03D26802F003020C2B49
:100A78003AD0042B3AD0E368002B75D07F4A13682C
:100A880043F480731360FFF76BFD05467B4B1B68CF
:100A980013F4806F5FD1FFF763FD401B0228F5D97F
:100AA8000320F2E1754A136843F480331360B6E714
:100AB80003F18043A3F53C331A6842F480221A609C
:100AC8001A6842F480321A60A9E7FFF749FD054623
:100AD8006A4B1B6813F4003FBED0FFF741FD401B73
:100AE8006428F5D90320D0E1022AC2D1634B1B68E0
:100AF80013F4806F03D0E368002B00F0C1815F4AD4
:100B0800536823F0FE43216943EA016353605C4B59
:100B18001868FFF7E1FC002840F0B481236813F05F
:100B2800080F4CD063699BB3544AD2F8943043F011
:100B38000103C2F89430FFF713FD05464F4BD3F875
:100B4800943013F0020F3AD1FFF70AFD401B022838
:100B5800F4D9032099E1494A536823F0FE432169F7
:100B680043EA01635360D9E7444A136823F4807366
:100B78001360FFF7F5FC0546404B1B6813F4806FC4
:100B8800CCD0FFF7EDFC401B0228F5D903207CE10F
:100B98003A4AD2F8943023F00103C2F89430FFF7B0
:100BA800DFFC0546354BD3F8943013F0020F06D01E
:100BB800FFF7D6FC401B0228F4D9032065E123681F
:100BC80013F0040F00F081802C4B9B6D13F0805FB5
:100BD80036D12A4B9A6D42F080529A659B6D03F08C
:100BE80080530193019B0125264B1B6813F4807FDA
:100BF80028D0A368012B39D0052B45D01F4BD3F83B
:100C0800902022F00102C3F89020D3F8902022F01F
:100C18000402C3F89020A368002B43D0FFF7A0FC80
:100C28000646164BD3F8903013F0020F4CD1FFF75D
:100C380097FC801B41F288339842F2D9032024E1C3
:100C48000025D1E70F4A136843F480731360FFF758
:100C580087FC06460B4B1B6813F4807FC9D1FFF74E
:100C68007FFC801B0228F5D903200EE1034AD2F845
:100C7800903043F00103C2F89030CCE700100240F6
:100C88000800002000700040884BD3F8902042F004
:100C98000402C3F89020D3F8902042F00102C3F870
:100CA8009020B8E7FFF75CFC0646804BD3F89030FD
:100CB80013F0020F08D0FFF753FC801B41F2883372
:100CC8009842F2D90320E0E0E5B9236813F0200F39
:100CD80035D0A369E3B1754AD2F8983043F00103DF
:100CE800C2F89830FFF73CFC0546704BD3F89830B3
:100CF80013F0020F23D1FFF733FC401B0228F4D96D
:100D08000320C2E0694A936D23F080539365DCE7C2
:100D1800664AD2F8983023F00103C2F89830FFF7FA
:100D28001FFC0546614BD3F8983013F0020F06D02C
:100D3800FFF716FC401B0228F4D90320A5E0E3695D
:100D4800002B00F0A180594A926802F00C020C2A8C
:100D580064D0022B13D0554A136823F080731360B4
:100D6800FFF7FEFB0446514B1B6813F0007F4ED083
:100D7800FFF7F6FB001B0228F5D9032085E04B4A54
:100D8800136823F080731360FFF7EAFB0546474BAF
:100D98001B6813F0007F06D0FFF7E2FB401B022818
:100DA800F5D9032071E0414AD36841491940236AC3
:100DB800606A013843EA0013A06A43EA0023206B03
:100DC8004008013843EA4053606B4008013843EA61
:100DD8004063E06A43EAC0631943D160136843F093
:100DE80080731360D36843F08073D360FFF7B8FB58
:100DF80004462E4B1B6813F0007F06D1FFF7B0FBAB
:100E0800001B0228F5D903203FE000203DE0274AD7
:100E1800D168284B0B40D360002036E0012B36D038
:100E2800224BDB6803F00301226A914231D103F0BF
:100E3800F002616A0139B2EB011F2CD103F4FE42C2
:100E4800A16AB2EB012F28D103F07842E16AB2EB34
:100E5800C16F24D103F4C001226B5208013AB1EBEF
:100E6800425F1ED103F0C063626B5208013AB3EBD4
:100E7800426F18D1002008E001207047012004E0EB
:100E8800012002E0012000E0002002B070BD012036
:100E9800FBE70120F9E70120F7E70120F5E701204A
:100EA800F3E70120F1E70120EFE700BF001002405F
:100EB8000C809F01FCFFEEFE1E4B9B6803F00C03A9
:100EC800042B33D01B4B9B6803F00C03082B2FD04B
:100ED800184B9B6803F00C030C2B01D000207047C3
:100EE800144BDA6802F00302DB68C3F3031301331F
:100EF800032A11D01048B0FBF3F00E4BDB68C3F3A4
:100F0800062303FB00F00B4BDB68C3F3416301339B
:100F18005B00B0FBF3F070470848B0FBF3F0054BFB
:100F2800DB68C3F3062303FB00F0ECE702487047D5
:100F380002487047001002400024F40000366E0199
:100F4800002800F0E680F8B50C460546744B1B688F
:100F580003F00F038B420BD2714A136823F00F037F
:100F68000B431360136803F00F038B4240F0D380E8
:100F78002E6816F001065FD06B68032B2FD0022B6A
:100F88004DD0684B1B6813F4806F00F0C680FFF7E4
:100F980093FF654B98424DD9624A936823F0F0035A
:100FA80043F08003936080265E4A936823F003032E
:100FB80069680B439360FFF7D3FA0746594B9B6860
:100FC80003F00C036A68B3EB820F35D0FFF7C8FA59
:100FD800C01B41F288339842F0D9032078E0514B86
:100FE8001B6813F0007F01D1012071E0FFF7C6FCF8
:100FF8004D4B98421AD94B4B9B6813F0F00F05D014
:101008002E6816F00206CFD0AB688BB9454A9368B4
:1010180023F0F00343F0800393608026C4E7414B3C
:101028001B6813F4003FB2D1012051E00026BBE752
:101038000026B9E70026B7E72B6813F0020F48D05F
:1010480013F0040F04D0374A936843F4E0639360C5
:101058002B6813F0080F06D0324A936823F47C53A8
:1010680043F4E06393602F4A936823F0F003A96880
:101078000B4393602A4B1B6803F00F03A34230D83D
:101088002B6813F0040F06D0264A936823F4E06314
:10109800E9680B4393602B6813F0080F07D0214AC7
:1010A800936823F46053296943EAC1039360FFF707
:1010B80003FF1C4B9B68C3F303131C4AD35C03F068
:1010C8001F03D8401A4B18601A4B1868FFF704FA28
:1010D800F8BD802ECED1134A936823F0F0039360B5
:1010E800C8E70F4A136823F00F0323431360FFF781
:1010F80037FA06460A4B1B6803F00F03A342BFD01A
:10110800FFF72EFA801B41F288339842F2D9032068
:10111800DEE7012070470120DAE70120D8E700BFA9
:10112800002002400010024000B4C4042C20000833
:101138000000002008000020014B1868704700BF1D
:101148000000002008B5FFF7F7FF054B9B68C3F3C5
:101158000223044AD35C03F01F03D84008BD00BF34
:10116800001002402420000808B5FFF7E5FF054BF2
:101178009B68C3F3C223044AD35C03F01F03D8401F
:1011880008BD00BF0010024024200008F0B583B05D
:101198000446036813F4002F6ED0354B9B6D13F093
:1011A800805F1ED1324B9A6D42F080529A659B6DDA
:1011B80003F080530193019B01262E4A136843F4E0
:1011C80080731360FFF7CCF905462A4B1B6813F4AC
:1011D800807F08D1FFF7C4F9401B0228F5D9032501
:1011E80002E00026E9E7002545BB214BD3F8903003
:1011F80013F4407315D0226D9A4212D01C4AD2F8CB
:10120800903023F44073D2F8901041F48031C2F842
:101218009010D2F8901021F48031C2F89010C2F8E2
:10122800903013F0010F10D145B9114AD2F890301F
:1012380023F44073216D0B43C2F89030EEB10C4A91
:10124800936D23F08053936517E0FFF789F90746FC
:10125800074BD3F8903013F0020FE5D1FFF780F970
:10126800C01B41F288339842F2D90325DCE700BF5E
:1012780000100240007000400025236813F0010FA1
:1012880008D09F4AD2F8883023F0030361680B43E3
:10129800C2F88830236813F0020F08D0984AD2F8B1
:1012A800883023F00C03A1680B43C2F88830236808
:1012B80013F0040F08D0924AD2F8883023F0300394
:1012C800E1680B43C2F88830236813F0080F08D090
:1012D8008B4AD2F8883023F0C00321690B43C2F847
:1012E8008830236813F0100F08D0854AD2F8883068
:1012F80023F4407361690B43C2F88830236813F004
:10130800200F08D07E4AD2F8883023F44063A169C0
:101318000B43C2F88830236813F0400F08D0784A8E
:10132800D2F8883023F44053E1690B43C2F888307F
:10133800236813F0800F08D0714AD2F8883023F45C
:101348004043216A0B43C2F88830236813F4807F36
:1013580008D06B4AD2F8883023F44033616A0B43D3
:10136800C2F88830236813F4003F08D0644AD2F8E2
:101378009C3023F00303A16A0B43C2F89C30236816
:1013880013F4007F08D05E4AD2F8883023F4402353
:10139800E16A0B43C2F88830236813F4806F0CD0DD
:1013A800574AD2F8883023F44013216B0B43C2F814
:1013B8008830236BB3F5801F79D0236813F4006F4E
:1013C8000CD04F4AD2F8883023F44003616B0B43AA
:1013D800C2F88830636BB3F5800F6DD0236813F4BF
:1013E800805F0CD0464AD2F8883023F04073A16B56
:1013F8000B43C2F88830A36BB3F1807F61D02368B8
:1014080013F4005F0CD03E4AD2F8883023F04063D2
:10141800E16B0B43C2F88830E36BB3F1006F55D032
:10142800236813F4804F0CD0354AD2F8883023F063
:101438004063216C0B43C2F88830236CB3F1006F12
:1014480049D0236813F4004F0CD02D4AD2F88830C5
:1014580023F04053616C0B43C2F88830636CB3F1DE
:10146800805F3DD0236813F4803F0CD0244AD2F823
:10147800883023F04043A16C0B43C2F88830A36C3A
:10148800B3F1804F31D0236813F4802F0CD01C4A5D
:10149800D2F89C3023F44013E16C0B43C2F89C3023
:1014A800E36CB3F5001F25D0284603B0F0BDD36820
:1014B80043F48013D36080E7D36843F48013D36088
:1014C8008CE7D36843F48013D36098E7D36843F478
:1014D8008013D360A4E7D36843F48013D360B0E7E4
:1014E800D36843F48033D360BCE7D36843F48033D4
:1014F800D360C8E7D36843F48013D360D4E700BF50
:1015080000100240026852E8003F23F4907342E85A
:1015180000310029F6D1026802F1080353E8003FC0
:1015280023F0805323F00103083242E800310029F8
:10153800F1D1C36E012B06D02023C0F88C300023D4
:10154800C36643677047026852E8003F23F0100300
:1015580042E800310029F6D1EEE7000070B50446F4
:10156800016883680269134342691343C2691343DC
:101578000868964A02401A430A602268536823F4AE
:101588004053E1680B435360A1692268904B9A422B
:1015980001D0236A1943936823F06E4323F4306320
:1015A8000B4393602268D36A23F00F03616A0B43ED
:1015B800D3622368874A934210D0874A934221D046
:1015C800864A934237D0864A93425CD0854A9342F2
:1015D8006BD07F4A93427DD010223AE002F5584200
:1015E800D2F8882002F00302032A09D8DFE802F0C3
:1015F8000204870601222CE004222AE0082228E0BF
:10160800102226E002F5E632D2F8882002F00C0219
:101618000C2A0ED8DFE802F0070D0D0D090D0D0D8F
:10162800750D0D0D0B00002213E0042211E00822B5
:101638000FE010220DE002F5E432D2F8882002F023
:101648003002202A5FD01AD8002A5ED0102A5ED134
:1016580004225F498B4276D0E069B0F5004F00F074
:10166800C980082A00F23481DFE812F0F700190176
:10167800F50032011C013201320132011F01302A0A
:1016880047D10822E5E702F5E232D2F8882002F0D5
:10169800C002802A3FD004D8FAB3402A3FD104229E
:1016A800D7E7C02A3DD10822D3E702F5E032D2F8C5
:1016B800882002F44072B2F5007F34D005D8A2B376
:1016C800B2F5807F33D10422C3E7B2F5407F30D131
:1016D8000822BEE702F5C832D2F8882002F4406238
:1016E800B2F5006F27D005D83AB3B2F5806F26D18E
:1016F8000422AEE7B2F5406F23D10822A9E70222FF
:10170800A7E70222A5E70222A3E70022A1E7102209
:101718009FE710229DE702229BE7002299E710220B
:1017280097E7102295E7022293E7002291E710221B
:101738008FE710228DE702228BE7002289E710222B
:1017480087E7102285E7082A00F2B280DFE802F076
:1017580008B03BB038B0B0B005004FF4004004E02A
:10176800FFF7F0FC002800F0A580626A1E4B33F8F2
:101778001220B0FBF2F3656805EB4501994200F2CF
:101788009B80B3EB053F00F2998000263346314633
:10179800FEF71EFD090241EA106100026B08C0183D
:1017A8002A46334641F10001FEF712FDA0F54072CA
:1017B8000E4B9A4200F284802368D860304665E078
:1017C800FFF77AFBCEE70A48CFE700BFF369FFCF00
:1017D80000800040003801400044004000480040BC
:1017E800004C0040005000403C200008FFFC0F0067
:1017F8000024F400082A65D8DFE802F0072705640A
:101808002A6464640B00354803E0FFF79BFC00285A
:101818005AD0626A324B33F81230B0FBF3F0626888
:10182800530803EB4003B3FBF2F3A3F110014FF6A7
:10183800EF7291424AD89AB222F00F02C3F34203E0
:1018480013432268D360002020E0FFF78DFCDEE719
:10185800FFF732FBDBE7214803E0FFF773FC0028C2
:1018680038D0626A1E4B33F81230B0FBF3F063686D
:1018780000EB5300B0FBF3F0A0F110024FF6EF734A
:101888009A4229D8236880B2D86000200123A4F89E
:101898006A30A4F8683000236367A36770BDFFF758
:1018A80063FCDCE7FFF708FBD9E74FF40040D8E713
:1018B8000120EBE70020E9E70120E7E70120E5E761
:1018C8000120E3E70120E1E70020DFE70120DDE771
:1018D8000120DBE70020D9E70120D7E70024F40046
:1018E8003C200008836A13F0080F06D0026853688A
:1018F80023F40043816B0B435360836A13F0010F99
:1019080006D00268536823F40033C16A0B4353605E
:10191800836A13F0020F06D00268536823F48033F9
:10192800016B0B435360836A13F0040F06D00268FF
:10193800536823F48023416B0B435360836A13F08D
:10194800100F06D00268936823F48053C16B0B43D1
:101958009360836A13F0200F06D00268936823F41B
:101968000053016C0B439360836A13F0400F0AD055
:101978000268536823F48013416C0B435360436C33
:10198800B3F5801F0BD0836A13F0800F06D002686E
:10199800536823F40023C16C0B43536070470268FB
:1019A800536823F4C003816C0B435360EBE72DE9C4
:1019B800F84305460E4617469946DDF820802B6801
:1019C800DC6936EA04040CBF01240024BC4236D189
:1019D800B8F1FF3FF3D0FEF7C3FDA0EB0900404587
:1019E80030D8B8F1000F2FD02B681A6812F0040F06
:1019F800E5D0802EE3D0402EE1D0DA6912F0080F4E
:101A080011D1DA6912F4006FD9D04FF400621A626A
:101A18002846FFF777FD2023C5F89030002385F886
:101A2800843003200CE008241C622846FFF76AFD76
:101A3800C5F89040002385F88430012000E000209C
:101A4800BDE8F8830320FBE70320F9E730B583B04E
:101A580004460023C0F89030FEF782FD0546226850
:101A6800126812F0080F10D123681B6813F0040FD6
:101A780028D12023C4F88830C4F88C300020E066D0
:101A8800206784F8840003B030BD6FF07E43009374
:101A9800034600224FF400112046FFF788FF002874
:101AA800E2D0226852E8003F23F0800342E8003188
:101AB8000029F6D12023C4F88830002384F8843024
:101AC8000320E0E76FF07E4300932B4600224FF49B
:101AD80080012046FFF76BFF0028CAD0226852E831
:101AE800003F23F4907342E800310029F6D12268C0
:101AF80002F1080353E8003F23F00103083242E8EB
:101B080000310029F3D12023C4F88C30002384F855
:101B180084300320B7E778B310B50446D0F888308E
:101B28000BB32423C4F888302268136823F0010318
:101B38001360A36AE3B92046FFF710FD012811D00E
:101B48002268536823F4904353602268936823F013
:101B58002A0393602268136843F001031360204648
:101B6800FFF774FF10BD80F88430FEF773FCD8E7E8
:101B78002046FFF7B7FEDEE701207047436E2BB91A
:101B88000123A0F86A30A0F86830704730B40368C1
:101B98009A68C2F342629968490F094D6B5CDB0091
:101BA800084C615C93FBF1F3A0F86A30AB5CDB0096
:101BB800A25C93FBF2F3A0F8683030BC704700BF1A
:101BC8005C2000085420000890F88430012B18D0BD
:101BD800012380F884302423C0F8883003681A6809
:101BE800196821F00101196022F0005200234366B0
:101BF80001680A602022C0F8882080F884301846DE
:101C080070470220704738B590F88430012B1DD0FA
:101C18000446012380F884302423C0F88830036800
:101C28001D681A6822F001021A600268936823F09E
:101C3800604319439160FFF7A1FF23681D602023CB
:101C4800C4F88830002084F8840038BD0220FCE7FE
:101C580038B590F88430012B1DD00446012380F854
:101C680084302423C0F8883003681D681A6822F07D
:101C780001021A600268936823F060631943916057
:101C8800FFF77CFF23681D602023C4F888300020FC
:101C980084F8840038BD0220FCE700000D48854622
:101CA800FEF79AFB0C480D490D4A002302E0D45870
:101CB800C4500433C4188C42F9D30A4A0A4C00238E
:101CC80001E013600432A242FBD300F019F8FEF7DA
:101CD8004BFBFEE700000220000000200C00002063
:101CE800742000080C000020C0000020FEE7024419
:101CF8000346934200D1704703F8011BF9E700003F
:101D080070B50D4D0D4C641BA4100026A64209D1D8
:101D18000B4D0C4C00F076F9641BA4100026A6426B
:101D280005D170BD55F8043B98470136EEE755F8E4
:101D3800043B98470136F2E76C2000086C20000845
:101D48006C200008702000082DE9F047089D0C461B
:101D5800002B4ED194468C458646B2FA82F262D95F
:101D68004AB1C2F12003914020FA03F30CFA02FCB5
:101D7800194300FA02FE4FEA1C471FFA8CF6B1FB22
:101D8800F7F44FEA1E4307FB141143EA014304FB2F
:101D980006F199420AD91CEB030304F1FF3080F0E5
:101DA8001281994240F20F81023C6344591A1FFA8A
:101DB8008EF3B1FBF7F007FB101143EA014300FB78
:101DC80006F69E420AD91CEB030300F1FF3180F0AE
:101DD800FC809E4240F2F980634402389B1B40EA33
:101DE800044000211DB1D3400022C5E90032BDE8FE
:101DF800F0878B4205D90DB1C5E9000100210846DD
:101E0800F5E7B3FA83F1002946D1A34202D3904201
:101E1800C0F0F080861A64EB03030120002DE6D0A1
:101E2800C5E90063E3E7002A40F09080A1EB0C04C9
:101E38004FEA1C481FFA8CF70121B4FBF8F64FEA69
:101E48001E4308FB164443EA044307FB06F0984286
:101E580008D91CEB030306F1FF3402D2984200F2C2
:101E6800CD8026461C1A1FFA8EF3B4FBF8F008FB47
:101E7800104443EA044300FB07F79F4208D91CEBD0
:101E8800030300F1FF3402D29F4200F2B0802046E3
:101E9800DB1B40EA0640A5E7C1F120068B4022FA89
:101EA80006F71F4320FA06FC04FA01F343EA0C0381
:101EB800F44000FA01F8380C4FEA1349B4FBF0FE7D
:101EC8001FFA87FC00FB1E4449EA04440EFB0CF988
:101ED800A14502FA01F20AD93C190EF1FF3A80F045
:101EE8008480A14540F28180AEF1020E3C44A4EB0F
:101EF80009041FFA83F9B4FBF0F300FB134449EA21
:101F0800044403FB0CFCA44507D93C1903F1FF303A
:101F180067D2A44565D9023B3C4443EA0E40A0FB86
:101F28000293A4EB0C049C42CE469C4651D34ED05F
:101F380055B1B8EB0E0364EB0C0404FA06F6CB407B
:101F48001E43CC40C5E90064002150E7C2F12003DC
:101F580020FA03F10CFA02FC24FA03F394400C4330
:101F68004FEA1C4800FA02FE1FFA8CF7B3FBF8F0A0
:101F780008FB1031230C43EA014300FB07F19942A7
:101F880008D91CEB030300F1FF362CD299422AD959
:101F9800023863445B1AA4B2B3FBF8F108FB1133AF
:101FA80044EA034401FB07F3A34208D91CEB0404E9
:101FB80001F1FF3613D2A34211D902396444E41A5D
:101FC80041EA004139E70446F0E6084606E7C84515
:101FD800AED2B9EB020E63EB070C0138A8E7314625
:101FE800EDE7034699E73046D4E7D6467FE76344F2
:101FF80002384DE70646234608460FE7023E63448B
:1020080030E700BFF8B500BFF8BC08BC9E46704773
:0C201800F8B500BFF8BC08BC9E4670473D
:1020240000000000010203040000000000000000A2
:102034000102030406070809010002000400060067
:1020440008000A000C00100020004000800000017D
:102054000804020408010101010101030701000051
:08206400ECFCFF7F010000000D
:04206C003102000835
:042070000D02000855
:0C2074000024F400010000001000000037
:0400000508001CA52E
:00000001FF
